{
  "contractName": "TestamentManager",
  "abi": [
    {
      "inputs": [],
      "name": "hospitalAddress",
      "outputs": [
        {
          "internalType": "address",
          "name": "",
          "type": "address"
        }
      ],
      "stateMutability": "view",
      "type": "function",
      "constant": true
    },
    {
      "inputs": [],
      "name": "testamentCount",
      "outputs": [
        {
          "internalType": "uint256",
          "name": "",
          "type": "uint256"
        }
      ],
      "stateMutability": "view",
      "type": "function",
      "constant": true
    },
    {
      "inputs": [
        {
          "internalType": "address payable[]",
          "name": "recipients",
          "type": "address[]"
        },
        {
          "internalType": "uint256[]",
          "name": "percentages",
          "type": "uint256[]"
        }
      ],
      "name": "writeTestament",
      "outputs": [],
      "stateMutability": "payable",
      "type": "function",
      "payable": true
    },
    {
      "inputs": [],
      "name": "getTestament",
      "outputs": [
        {
          "internalType": "uint256",
          "name": "",
          "type": "uint256"
        },
        {
          "internalType": "address payable[]",
          "name": "",
          "type": "address[]"
        },
        {
          "internalType": "uint256[]",
          "name": "",
          "type": "uint256[]"
        }
      ],
      "stateMutability": "view",
      "type": "function",
      "constant": true
    },
    {
      "inputs": [
        {
          "internalType": "address",
          "name": "owner",
          "type": "address"
        }
      ],
      "name": "distribute",
      "outputs": [],
      "stateMutability": "nonpayable",
      "type": "function"
    },
    {
      "inputs": [
        {
          "internalType": "address",
          "name": "owner",
          "type": "address"
        }
      ],
      "name": "cancelTestamnet",
      "outputs": [],
      "stateMutability": "nonpayable",
      "type": "function"
    }
  ],
  "bytecode": "0x608060405273cded5607c0cbd892bddef4817c8bc0c1505c67f1600160006101000a81548173ffffffffffffffffffffffffffffffffffffffff021916908373ffffffffffffffffffffffffffffffffffffffff16021790555034801561006557600080fd5b50611616806100756000396000f3fe6080604052600436106100555760003560e01c8063110c30231461005a57806363453ae11461008357806368f4fb29146100ac578063c648b086146100d9578063d1d3a04c146100f5578063f0aa852614610120575b600080fd5b34801561006657600080fd5b50610081600480360381019061007c9190610ce7565b61014b565b005b34801561008f57600080fd5b506100aa60048036038101906100a59190610ce7565b6101c5565b005b3480156100b857600080fd5b506100c1610530565b6040516100d093929190610ebb565b60405180910390f35b6100f360048036038101906100ee9190611174565b61065f565b005b34801561010157600080fd5b5061010a61087d565b60405161011791906111ec565b60405180910390f35b34801561012c57600080fd5b50610135610883565b6040516101429190611216565b60405180910390f35b8073ffffffffffffffffffffffffffffffffffffffff163373ffffffffffffffffffffffffffffffffffffffff16146101b9576040517f08c379a00000000000000000000000000000000000000000000000000000000081526004016101b0906112b4565b60405180910390fd5b6101c2816108a9565b50565b8073ffffffffffffffffffffffffffffffffffffffff163373ffffffffffffffffffffffffffffffffffffffff16148061024c5750600160009054906101000a900473ffffffffffffffffffffffffffffffffffffffff1673ffffffffffffffffffffffffffffffffffffffff163373ffffffffffffffffffffffffffffffffffffffff16145b61028b576040517f08c379a000000000000000000000000000000000000000000000000000000000815260040161028290611346565b60405180910390fd5b6000600260008373ffffffffffffffffffffffffffffffffffffffff1673ffffffffffffffffffffffffffffffffffffffff16815260200190815260200160002060020180548060200260200160405190810160405280929190818152602001828054801561034f57602002820191906000526020600020905b8160009054906101000a900473ffffffffffffffffffffffffffffffffffffffff1673ffffffffffffffffffffffffffffffffffffffff1681526020019060010190808311610305575b505050505090506000600260008473ffffffffffffffffffffffffffffffffffffffff1673ffffffffffffffffffffffffffffffffffffffff16815260200190815260200160002060000154905060005b82518110156104d9576000600260008673ffffffffffffffffffffffffffffffffffffffff1673ffffffffffffffffffffffffffffffffffffffff168152602001908152602001600020600101600085848151811061040257610401611366565b5b602002602001015173ffffffffffffffffffffffffffffffffffffffff1673ffffffffffffffffffffffffffffffffffffffff16815260200190815260200160002054905060006064828561045791906113c4565b6104619190611435565b905084838151811061047657610475611366565b5b602002602001015173ffffffffffffffffffffffffffffffffffffffff166108fc829081150290604051600060405180830381858888f193505050501580156104c3573d6000803e3d6000fd5b50505080806104d190611466565b9150506103a0565b506000600260008573ffffffffffffffffffffffffffffffffffffffff1673ffffffffffffffffffffffffffffffffffffffff1681526020019081526020016000206000018190555061052b836108a9565b505050565b60006060806000600260003373ffffffffffffffffffffffffffffffffffffffff1673ffffffffffffffffffffffffffffffffffffffff1681526020019081526020016000206002018054806020026020016040519081016040528092919081815260200182805480156105f957602002820191906000526020600020905b8160009054906101000a900473ffffffffffffffffffffffffffffffffffffffff1673ffffffffffffffffffffffffffffffffffffffff16815260200190600101908083116105af575b50505050509050600061060b336109af565b9050600260003373ffffffffffffffffffffffffffffffffffffffff1673ffffffffffffffffffffffffffffffffffffffff1681526020019081526020016000206000015482829450945094505050909192565b80518251146106a3576040517f08c379a000000000000000000000000000000000000000000000000000000000815260040161069a90611520565b60405180910390fd5b600082600260003373ffffffffffffffffffffffffffffffffffffffff1673ffffffffffffffffffffffffffffffffffffffff16815260200190815260200160002060020190805190602001906106fb929190610bad565b5034600260003373ffffffffffffffffffffffffffffffffffffffff1673ffffffffffffffffffffffffffffffffffffffff1681526020019081526020016000206000018190555060005b835181101561083457600084828151811061076457610763611366565b5b60200260200101519050600084838151811061078357610782611366565b5b6020026020010151905080600260003373ffffffffffffffffffffffffffffffffffffffff1673ffffffffffffffffffffffffffffffffffffffff16815260200190815260200160002060010160008473ffffffffffffffffffffffffffffffffffffffff1673ffffffffffffffffffffffffffffffffffffffff16815260200190815260200160002081905550808461081d9190611540565b93505050808061082c90611466565b915050610746565b5060648114610878576040517f08c379a000000000000000000000000000000000000000000000000000000000815260040161086f906115c0565b60405180910390fd5b505050565b60005481565b600160009054906101000a900473ffffffffffffffffffffffffffffffffffffffff1681565b6000600260008373ffffffffffffffffffffffffffffffffffffffff1673ffffffffffffffffffffffffffffffffffffffff16815260200190815260200160002060000154905060008290508073ffffffffffffffffffffffffffffffffffffffff166108fc839081150290604051600060405180830381858888f1935050505015801561093b573d6000803e3d6000fd5b50600260008473ffffffffffffffffffffffffffffffffffffffff1673ffffffffffffffffffffffffffffffffffffffff1681526020019081526020016000206000808201600090556002820160006109949190610c37565b6003820160006101000a81549060ff02191690555050505050565b60606000600260008473ffffffffffffffffffffffffffffffffffffffff1673ffffffffffffffffffffffffffffffffffffffff168152602001908152602001600020600201805480602002602001604051908101604052809291908181526020018280548015610a7557602002820191906000526020600020905b8160009054906101000a900473ffffffffffffffffffffffffffffffffffffffff1673ffffffffffffffffffffffffffffffffffffffff1681526020019060010190808311610a2b575b505050505090506000815167ffffffffffffffff811115610a9957610a98610f16565b5b604051908082528060200260200182016040528015610ac75781602001602082028036833780820191505090505b50905060005b8251811015610ba257600260008673ffffffffffffffffffffffffffffffffffffffff1673ffffffffffffffffffffffffffffffffffffffff1681526020019081526020016000206001016000848381518110610b2d57610b2c611366565b5b602002602001015173ffffffffffffffffffffffffffffffffffffffff1673ffffffffffffffffffffffffffffffffffffffff16815260200190815260200160002054828281518110610b8357610b82611366565b5b6020026020010181815250508080610b9a90611466565b915050610acd565b508092505050919050565b828054828255906000526020600020908101928215610c26579160200282015b82811115610c255782518260006101000a81548173ffffffffffffffffffffffffffffffffffffffff021916908373ffffffffffffffffffffffffffffffffffffffff16021790555091602001919060010190610bcd565b5b509050610c339190610c58565b5090565b5080546000825590600052602060002090810190610c559190610c58565b50565b5b80821115610c71576000816000905550600101610c59565b5090565b6000604051905090565b600080fd5b600080fd5b600073ffffffffffffffffffffffffffffffffffffffff82169050919050565b6000610cb482610c89565b9050919050565b610cc481610ca9565b8114610ccf57600080fd5b50565b600081359050610ce181610cbb565b92915050565b600060208284031215610cfd57610cfc610c7f565b5b6000610d0b84828501610cd2565b91505092915050565b6000819050919050565b610d2781610d14565b82525050565b600081519050919050565b600082825260208201905092915050565b6000819050602082019050919050565b6000610d6482610c89565b9050919050565b610d7481610d59565b82525050565b6000610d868383610d6b565b60208301905092915050565b6000602082019050919050565b6000610daa82610d2d565b610db48185610d38565b9350610dbf83610d49565b8060005b83811015610df0578151610dd78882610d7a565b9750610de283610d92565b925050600181019050610dc3565b5085935050505092915050565b600081519050919050565b600082825260208201905092915050565b6000819050602082019050919050565b610e3281610d14565b82525050565b6000610e448383610e29565b60208301905092915050565b6000602082019050919050565b6000610e6882610dfd565b610e728185610e08565b9350610e7d83610e19565b8060005b83811015610eae578151610e958882610e38565b9750610ea083610e50565b925050600181019050610e81565b5085935050505092915050565b6000606082019050610ed06000830186610d1e565b8181036020830152610ee28185610d9f565b90508181036040830152610ef68184610e5d565b9050949350505050565b600080fd5b6000601f19601f8301169050919050565b7f4e487b7100000000000000000000000000000000000000000000000000000000600052604160045260246000fd5b610f4e82610f05565b810181811067ffffffffffffffff82111715610f6d57610f6c610f16565b5b80604052505050565b6000610f80610c75565b9050610f8c8282610f45565b919050565b600067ffffffffffffffff821115610fac57610fab610f16565b5b602082029050602081019050919050565b600080fd5b610fcb81610d59565b8114610fd657600080fd5b50565b600081359050610fe881610fc2565b92915050565b6000611001610ffc84610f91565b610f76565b9050808382526020820190506020840283018581111561102457611023610fbd565b5b835b8181101561104d57806110398882610fd9565b845260208401935050602081019050611026565b5050509392505050565b600082601f83011261106c5761106b610f00565b5b813561107c848260208601610fee565b91505092915050565b600067ffffffffffffffff8211156110a05761109f610f16565b5b602082029050602081019050919050565b6110ba81610d14565b81146110c557600080fd5b50565b6000813590506110d7816110b1565b92915050565b60006110f06110eb84611085565b610f76565b9050808382526020820190506020840283018581111561111357611112610fbd565b5b835b8181101561113c578061112888826110c8565b845260208401935050602081019050611115565b5050509392505050565b600082601f83011261115b5761115a610f00565b5b813561116b8482602086016110dd565b91505092915050565b6000806040838503121561118b5761118a610c7f565b5b600083013567ffffffffffffffff8111156111a9576111a8610c84565b5b6111b585828601611057565b925050602083013567ffffffffffffffff8111156111d6576111d5610c84565b5b6111e285828601611146565b9150509250929050565b60006020820190506112016000830184610d1e565b92915050565b61121081610ca9565b82525050565b600060208201905061122b6000830184611207565b92915050565b600082825260208201905092915050565b7f4f6e6c79207468652074657374616d656e74206f776e65722063616e2063616c60008201527f6c20746869732066756e6374696f6e0000000000000000000000000000000000602082015250565b600061129e602f83611231565b91506112a982611242565b604082019050919050565b600060208201905081810360008301526112cd81611291565b9050919050565b7f4f6e6c79207468652074657374616d656e74206f776e657220616e6420486f7360008201527f706974616c2063616e2063616c6c20746869732066756e6374696f6e00000000602082015250565b6000611330603c83611231565b915061133b826112d4565b604082019050919050565b6000602082019050818103600083015261135f81611323565b9050919050565b7f4e487b7100000000000000000000000000000000000000000000000000000000600052603260045260246000fd5b7f4e487b7100000000000000000000000000000000000000000000000000000000600052601160045260246000fd5b60006113cf82610d14565b91506113da83610d14565b92508282026113e881610d14565b915082820484148315176113ff576113fe611395565b5b5092915050565b7f4e487b7100000000000000000000000000000000000000000000000000000000600052601260045260246000fd5b600061144082610d14565b915061144b83610d14565b92508261145b5761145a611406565b5b828204905092915050565b600061147182610d14565b91507fffffffffffffffffffffffffffffffffffffffffffffffffffffffffffffffff82036114a3576114a2611395565b5b600182019050919050565b7f4c656e677468206f6620726563697069656e747320616e642070657263656e7460008201527f6167657320617272617973206d757374206265207468652073616d652e000000602082015250565b600061150a603d83611231565b9150611515826114ae565b604082019050919050565b60006020820190508181036000830152611539816114fd565b9050919050565b600061154b82610d14565b915061155683610d14565b925082820190508082111561156e5761156d611395565b5b92915050565b7f546f74616c2070657263656e74616765206d757374206265203130302e000000600082015250565b60006115aa601d83611231565b91506115b582611574565b602082019050919050565b600060208201905081810360008301526115d98161159d565b905091905056fea264697066735822122005f282416f47592ce009b099981a6e82d4a36b996a23a7722411d04c59fe7ef364736f6c63430008110033",
  "immutableReferences": {},
  "source": "// SPDX-License-Identifier: MIT\r\npragma solidity >=0.5.0 <0.9.0;\r\n\r\ncontract TestamentManager {\r\n\r\n    uint public testamentCount;\r\n    address public hospitalAddress = 0xCded5607C0cBD892BDdef4817c8Bc0C1505C67F1; \r\n\r\n    struct Testament {\r\n        uint256 totalAmount;\r\n        mapping(address => uint256) addressPercentages;\r\n        address payable [] recipients;\r\n        bool active;\r\n    }\r\n\r\n    mapping(address => Testament) testaments;\r\n\r\n    function writeTestament(address payable[] memory recipients, uint256[] memory percentages) external payable {\r\n        require(recipients.length == percentages.length, \"Length of recipients and percentages arrays must be the same.\");\r\n        uint256 totalPercentage = 0;\r\n        testaments[msg.sender].recipients = recipients;\r\n        testaments[msg.sender].totalAmount = msg.value;\r\n        for (uint256 i = 0; i < recipients.length; i++) {\r\n            address payable recipient = recipients[i];\r\n            uint256 percentage = percentages[i];\r\n            testaments[msg.sender].addressPercentages[recipient] = percentage;\r\n            totalPercentage += percentage;\r\n        }\r\n        require(totalPercentage == 100, \"Total percentage must be 100.\");\r\n    }\r\n\r\n    function getAddressAndPercentages(address owner) private view returns (uint256[] memory) {\r\n        address payable [] memory addresses = testaments[owner].recipients;\r\n\r\n        uint[] memory percentages = new uint[](addresses.length);\r\n        \r\n        for (uint i = 0; i < addresses.length; i++) {\r\n            percentages[i] = testaments[owner].addressPercentages[addresses[i]];\r\n        }\r\n        \r\n        return percentages;\r\n    }\r\n\r\n    function getTestament() public view returns (uint256, address payable [] memory, uint[] memory) {\r\n        address payable[] memory recipients = testaments[msg.sender].recipients;\r\n        uint[] memory percentages = getAddressAndPercentages(msg.sender);\r\n        return (testaments[msg.sender].totalAmount, recipients, percentages);\r\n    }\r\n\r\n    function distribute(address owner) public {\r\n        require(msg.sender == owner || msg.sender == hospitalAddress, \"Only the testament owner and Hospital can call this function\");\r\n        address payable [] memory recipients = testaments[owner].recipients;\r\n        uint totalAmount = testaments[owner].totalAmount;\r\n\r\n        for (uint i = 0; i < recipients.length; i++) {\r\n            uint percentage = testaments[owner].addressPercentages[recipients[i]];\r\n            uint amount = (totalAmount*percentage)/100;\r\n            recipients[i].transfer(amount);\r\n        }\r\n        testaments[owner].totalAmount = 0;\r\n        deleteTestament(owner);\r\n    }\r\n\r\n    function cancelTestamnet(address owner) public {\r\n        require(msg.sender == owner, \"Only the testament owner can call this function\");\r\n        deleteTestament(owner);\r\n    }\r\n\r\n    function deleteTestament(address owner) private {\r\n        uint256 remainingFunds = testaments[owner].totalAmount;\r\n        address payable testator = payable(owner);\r\n        testator.transfer(remainingFunds);\r\n        \r\n        delete testaments[owner];\r\n    }\r\n\r\n}",
  "sourcePath": "D:\\Skola\\5.semester\\Bakalarka\\contracts\\TestamentManager.sol",
  "compiler": {
    "name": "solc",
    "version": "0.8.17+commit.8df45f5f.Emscripten.clang"
  },
  "schemaVersion": "3.4.11",
  "updatedAt": "2023-05-20T14:30:42.203Z",
  "networkType": "ethereum",
  "devdoc": {
    "kind": "dev",
    "methods": {},
    "version": 1
  },
  "userdoc": {
    "kind": "user",
    "methods": {},
    "version": 1
  }
}